:020000040800F2
:10000000E0060020D9000008ED2300084D2100087B
:1000100000000000000000000000000000000000E0
:10002000000000000000000000000000F1230008B4
:100030000000000000000000EF230008F323000888
:10004000EB000008EB000008EB000008EB000008E4
:10005000EB000008EB000008F903000803040008A7
:1000600000000000EB000008EB000008EB000008B7
:10007000EB000008EB00000800000000EB000008A7
:1000800000000000452500080000000000000000FE
:10009000EB00000800000000EB000008EB00000887
:1000A000EB000008EB000008EB000008F52D00084D
:1000B000EB00000889230008000000000000000099
:1000C0000448854600F090F8004800478D3300084A
:1000D000C046C046E0060020044880470448004768
:1000E000FEE7FEE7FEE7FEE7FEE7FEE799240008ED
:1000F000C100000830B50B46014600202022012433
:1001000009E00D46D5409D4205D31D469540491B4B
:100110002546954040191546521E002DF1DC30BD94
:10012000F0B51FB40646002082B005464024019178
:1001300000901BE0019922460F46304600F042F83D
:10014000049A059B801A994110D3104619462246FD
:1001500000F028F8361A8F4101972246012000212D
:10016000009F00F01FF838184D4100902046641E93
:100170000028DFDC019B00982946324607B0F0BD1D
:10018000D2B201E00270401C491EFBD2704700222F
:10019000F6E710B513460A4604461946FFF7F0FF86
:1001A000204610BD10B5202A04DB0146203A9140BC
:1001B000002010BD914020239C1A0346E3401943C0
:1001C000904010BD10B5202A04DB0846203AD040EC
:1001D000002110BD0B46D340D0402024A21A9140EC
:1001E0000843194610BD0000064C0125064E05E0E7
:1001F000E36807CC2B430C3C98471034B442F7D348
:10020000FFF762FFE0390008003A000870B50446C5
:1002100000688168490724D58168102649070029AC
:1002200005DA8168890702D481683143816000F072
:1002300083FD054611E000F07FFD401B0A280CD924
:1002400020688068400708D5606D30436065A06D08
:1002500001210843A065084670BD206880684007FA
:10026000E9D4002070BD000038B5044606480549B1
:100270000068FFF73FFF604300E0401E0090002849
:10028000FBD138BD40420F00A4000020F8B5044661
:10029000006881688907890F012929D10168C90788
:1002A00026D081680522114010250126012913D18D
:1002B000816802221143816021680320086000F0F8
:1002C0003BFD074610E000F037FDC01B0A280BD9A4
:1002D00020688068C00707D0606D28436065A06D06
:1002E0003043A0650120F8BD20688068C007EAD1CE
:1002F0000020F8BDF8B50446006881688907890FB9
:10030000012902D10168C90727D18168144A102642
:1003100011400125002913D1816829438160012002
:10032000FFF7A2FF00F008FD074611E000F004FD12
:10033000C01B0A280CD920680068C043C00707D03A
:10034000606D30436065A06D2843A0650120F8BD55
:1003500020680068C043C007E8D10020F8BD000055
:100360001700008070B51F48416B4215114341636F
:100370001E481D4901601022826000214160012455
:10038000022204618263C16004224261024620327B
:100390001170FF235170C233436281621173016394
:1003A000C163C1618461416300F0AAF9002801D0F2
:1003B00072B6FEE70E4D012000032C6068602946EE
:1003C0000A4800F04FF9002801D072B6FEE709484C
:1003D00028600749054800F045F9002801D072B6A9
:1003E000FEE770BD0010024000240140B001002073
:1003F000000000200200000410B5042000F0A4FB5F
:1004000010BD10B5FF20013000F09EFB012000035D
:1004100000F09AFB10BD0000F0B5624887B0416B58
:10042000012421434163816B020411438163C26A49
:1004300080210A43C262C26A0A400592C16A21430E
:10044000C162C16A21400591C16A02252943C16286
:10045000C16A29400591C16A04263143C162C06A5C
:10046000002730400590032040026946A1C10320C7
:100470000390052069460496000700F071FBA00276
:100480006946A1C10320039069460496464800F0DE
:1004900067FBE0026946A1C1032003906946049608
:1004A000414800F05DFB029769463F48039700957D
:1004B000019400F055FB032000900190052069464F
:1004C0000297000700F04CFBF820694691C1052017
:1004D00069460007039700F043FB05200022F8213E
:1004E000000700F022FC0520694691C169462E48AC
:1004F000039700F035FB002204212B4800F015FC87
:1005000001221146284800F010FC032040036946F0
:1005100091C169462548039700F022FB2003009013
:10052000212000040190694602971F4800F018FB43
:10053000072000F095FC00221146072000F09CFCEB
:1005400020020090112000040190052069460294C9
:10055000000700F005FB072000F082FC0022114696
:10056000072000F089FC1120000401900520694655
:1005700000960294000700F0F3FA062000F070FCE9
:1005800000221146062000F077FCE00300900520D1
:100590000490039701956946000700F0E1FA07B05F
:1005A000F0BD0000001002400004005000080050A0
:1005B000F8B5054604464035287C0026012808D0B9
:1005C00001202874206881688907890F01290ED1CC
:1005D00001E00220F8BD0168C90708D0606D202144
:1005E000084360650126002028743046F8BD616D1F
:1005F000FF2201329143022211436165C1688907DC
:10060000890F0091C16889088900C16020688168EC
:1006100092071143816000F08FFB074612E000F063
:100620008BFBC01B0A280DD920688068002809DAD6
:10063000606D022188431021084360650020287402
:100640000120F8BD206880680028E8DB2068C168C8
:10065000009A1143C160606D80088000401C606595
:10066000C1E70000F8B506460D464036317C012949
:100670000DD00121317401688A68520709D5416D96
:10068000202211434165002030740120F8BD022072
:10069000F8BD174B6A68D80547109A42154C8A6A0C
:1006A0002B6812D05B035B0B1A438A6229684903EB
:1006B00005D5A1680143A1600A20FFF7D5FD286890
:1006C000800312D5A06838430EE05B035B0B9A43AE
:1006D0008A622968490302D5A1688143A16028681C
:1006E000800302D5A068B843A06000203074F8BD34
:1006F00001100000002701400068006C70470000F6
:1007000070B5040006D0606D2646002540360028EE
:1007100002D006E0012070BDA5653574204600F0CA
:10072000D3F8606DC00603D421688868400705D5FA
:10073000606D1021084360653574EBE7606DFF2242
:100740000132904302221043606588688207920F4D
:100750005B48012A02D10A68D2072BD103236268C1
:100760009B079A4205D05B429A4202D05B009A42B4
:1007700009D10A69920092080A6121680A696368CE
:100780001A430A610CE00A69920092080A618168C2
:100790000F229204914381608168626811438160F5
:1007A0002168CA6818239A43CA602168CA68A36886
:1007B0001A43CA60816801225206914381608168B0
:1007C000A28E52061143816020688168C90004D45A
:1007D000816801221207114381602068C168394A8B
:1007E0001140C1602069E168022825D00020014342
:1007F000204620300278037B52035B001A431143EA
:10080000226B1143A26992031143E269D20311439F
:100810002268D3681943D160616A0A46FF3AC23A36
:1008200005D0A26A11432268D3681943D160427887
:100830000121012A02D00BE00420D8E7007800282B
:1008400023D0606D202210436065A06D0843A06531
:10085000E06B012820681FD00169C90703D0016936
:1008600049084900016120684169C908C90041611E
:1008700020684169A26B11434161A565606D8008E4
:100880008000401C6065002070BD2068C2680123A4
:100890001B041A43C260DBE70269FF239B009A43F3
:1008A000026120680269236CA66C1A43636C3343AF
:1008B0001A430261206802690A430261D3E700001B
:1008C000002701401902FEFF7047F8B50446406951
:1008D000254640350E4608280BD02068C068C00762
:1008E00009D0606D20210843606500202874012034
:1008F000F8BD082700E00C2700F01EFA009015E074
:10090000701C13D0002E05D000F016FA0099401A82
:10091000B0420BD920680068384207D1606D0421CD
:1009200008436065002028740320F8BD2068006833
:100930003842E5D0606D01214902084360652068B6
:10094000C16809058A0F0C21002A1BD12022125DE3
:10095000002A17D10268120714D5826853070122B2
:10096000002B08DB43688B434360606D13029843A0
:100970001043606506E0606D202318436065A06D3C
:100980001043A065A069002801D120680160002003
:10099000F8BD000070B50446216800208968490749
:1009A00021D425464035297C01291CD001212974F8
:1009B000E169012904D02046FFF79CFC002811D1F1
:1009C000616D0A4A1140FF22013211436165002125
:1009D000A165297422681C21116021688A6804239A
:1009E0001A438A6070BD022070BD0000FEF1FFFF57
:1009F00070B5054604464035287C012807D00126FD
:100A00002E742046FFF702FC002802D00CE00220E2
:100A100070BD2046FFF73AFC002805D1616DFF222A
:100A200001329143314361650021297470BD30B5B5
:100A3000014620314A790023022A04D00422C263ED
:100A40000B71012030BD026814680E25AC431460A0
:100A500002681468640864001460446C1C2214402A
:100A600001221546006CA54045604A7118460B717D
:100A700030BD70B50024014620314A79022A03D0E6
:100A80000421C163012418E0026813680E25AB43FA
:100A90001360026813685B085B001360436C1C22E0
:100AA0001340012215469D40036C5D604A7100228F
:100AB0000A71816B002900D08847204670BD000074
:100AC00070B5044600F038F90546601C02D00448B1
:100AD0000078241800F030F9401BA042FAD370BD12
:100AE0009800002070B50546072000F0A9F90620FF
:100AF00000F0A6F9114800F017FE114CE81FF93874
:100B000007D001200003854202D16069401C60616A
:100B100070BD6079052806D002F022FD0220207108
:100B20000020A07170BD02F01BFD01202071024663
:100B30004103044800F0F9F8F2E700004C020020FD
:100B4000080000200008005010B504494A6902421C
:100B500002D04861FFF7C6FF10BD0000000401404D
:100B6000F8B5002303240125BDE032462E469E4001
:100B7000B446324079D00E79B607B60F012E01D0B7
:100B8000022E17D186682746B6465E00B74000960B
:100B90007646BE43B646CF68009EB740764637439A
:100BA000876046686746BE430F79FF06FF0F9F4088
:100BB000374347600E79F643B6070ED0C66827461E
:100BC000B4465E00B646B7406646BE43B4468F683C
:100BD0007646B74066463743C7600E79B607B60F0C
:100BE000022E14D1DE08B60036180096366A5F076A
:100BF000B446FE0E0F27B646B7406646BE43B4461F
:100C00000F697646B74066463743009E37620668EE
:100C10002746B4465E00B646B7406646BE430F79E7
:100C2000B446BF07BF0F7646B740664637430760F6
:100C30004E68B603B60F55D02E4F7E6B2E437E63A3
:100C40009F082D4EBF00BE190096B6680F27B44608
:100C50009E07360FB646B7406646BE4305273F0798
:100C6000B446B84202D1002715E03BE0234FB8421A
:100C700001D101270FE0224FB84201D102270AE03B
:100C8000204FB84201D1032705E01F4FB84201D1E0
:100C9000052700E006277646B74066463743009EA4
:100CA000B7601A4E36684F689643FF0300D5164367
:100CB000164F3E607E684F689643BF0300D51643CB
:100CC000124F7E60BE684F689643FF0200D5164300
:100CD0000E4FBE60FE684F689643BF0200D51643B4
:100CE0000A4AD6605B1C0A681646DA4000D03CE728
:100CF000F8BD000000100240000001400004005058
:100D000000080050000C0050001C0050000401407E
:100D10000069084000D001207047426913460B402B
:100D20001B0491430B4383617047002A01D081610A
:100D3000704781627047000001488068704700007A
:100D40009800002070B504000FD021681548086095
:100D500021681548086003CC41602068083C216880
:100D60008860FFF7E9FF05460CE0012070BDFFF742
:100D7000E3FF401B2A2805D92068C068400701D03E
:100D8000032070BD2068C0684007F0D12068026968
:100D9000E1688A4201D0016101E00449016000205C
:100DA00070BD0000CCCC000055550000AAAA000080
:100DB000006802490160002070470000AAAA0000F4
:100DC0000248816802788918816070479800002085
:100DD00010B50848002401684022114301602046F4
:100DE00000F00AF8002801D0012401E000F026F804
:100DF000204610BD0020024070B504460D4D7D20F8
:100E00002978C000FFF776F901460B480068FFF724
:100E100071F900F025FC002809D1042C07D200222A
:100E20002146401E00F028F800206C6070BD0120B3
:100E300070BD000098000020A40000207047000052
:100E4000002809DBC106C90E01208840034908605B
:100E5000BFF34F8FBFF36F8F7047000080E100E05A
:100E6000002805DBC106C90E012088400149086041
:100E70007047000000E100E010B502F039F810BD45
:100E8000F8B5044600780027534D800671D5524EC0
:100E9000403EB06BC00004D4B06BA9050843B063FA
:100EA00001274E480168C90511D401688215114314
:100EB0000160FFF741FF009005E0FFF73DFF00995B
:100EC000401A642837D845480068C005F5D532680F
:100ED0000321090560680A400140914208D081035E
:100EE000890F032904D13168890301D50120F8BD98
:100EF0002A69032109040A4022D0084090421FD0E9
:100F0000207880061CD528692A6988430121C904F4
:100F10000A432A612A698A432A612861C0050FD5DC
:100F2000FFF70AFF009008E0FFF706FF0099411A5B
:100F30002B48814201D90320F8BD28698005F3D5EB
:100F400061688803800F032805D132680005824359
:100F500001400A433260286903226168120411408B
:100F600008432861002F04D0B16B012000078143A2
:100F7000B1632078C00705D0E868A16880088000C8
:100F80000843E8602078800705D5E8680C2188438D
:100F9000E1680843E8602078400706D5E868032147
:100FA0008902884321690843E8602078000706D554
:100FB000E86803210903884361690843E8602078F1
:100FC000000606D5E868032189048843A16908431F
:100FD000E8600020F8BD00004010024000700040B2
:100FE00088130000F8B50E46050038D05E4800684A
:100FF000C007C00FB04214D25B4C206840084000CC
:1010000030432060FFF798FE074605E0FFF794FEA7
:10101000C11B564881427AD82068C007C00FB04231
:10102000F4D12878524C800705D5E068F021884338
:10103000A9680843E0602878C00752D06868022891
:1010400006D0032807D0216801280AD0890504E0CA
:101050002168890301E021688901002903DB01205F
:10106000F8BD4907F9E7E168890889000143E160B3
:10107000FFF762FE0746686802280AD0032814D0EA
:1010800001281ED029E0FFF757FEC11B37488142D7
:101090003DD8E0680007800F0228F4D121E0FFF777
:1010A0004BFEC11B3148814231D8E0680007800FF8
:1010B0000328F4D115E0FFF73FFEC11B2B48814206
:1010C00025D8E0680007800F0128F4D109E0FFF778
:1010D00033FEC11B2548814219D8E0680007800F04
:1010E000F5D121480168C907C90FB14217D9016874
:1010F0004908490031430160FFF71EFE074608E03A
:1011000005E0FFF719FEC11B1848814201D90320F1
:10111000F8BD15480068C007C00FB042F1D128786B
:10112000400706D5E068072109028843E9680843BB
:10113000E0602878000707D5E0680721C9028843E6
:101140002969C9000843E06000F03AF8E168094AFB
:101150000906090F515CC840074908600748006844
:10116000FFF74AFEF8BD000000200240881300008F
:1011700000100240BC390008A40000209C000020A0
:10118000044805490068C968044A4905490F515C8B
:10119000C8407047A400002000100240D539000864
:1011A000044805490068C968044A8904490F515C2C
:1011B000C8407047A400002000100240D539000844
:1011C00070B51A4AD3681A490C2018408D000428BB
:1011D0000CD04E00082810D00C2810D05068000405
:1011E000410F0120C003491C884070BD1068C00633
:1011F00001D5084670BD284670BD304670BD9802C6
:101200000C4C000F205C1B029C0FD368641CDB039A
:1012100001D5314603E01268D20600D4294601F018
:1012200035FE22460023FEF77BFF70BD0010024012
:1012300000093D00CC390008FEB505007ED0FE4C0B
:10124000E7680C20E6680740012000040640287883
:10125000C00747D0082F05D00C2F0AD10120000469
:10126000864206D1206880033CD568680028E5D016
:1012700038E0012069680004814203D121680143FC
:10128000216011E0052301221B0492049942216888
:1012900002D111432160F1E78143216021680140BF
:1012A0000091206890432060686800280DD0FFF707
:1012B00043FD009005E0FFF73FFD0099401A6428C8
:1012C0007BD820688003F6D50CE0FFF735FD009051
:1012D00005E0FFF731FD0099401A6428F0D8206836
:1012E0008003F6D42878800756D50923E868042FB0
:1012F0000DD00C2F01D1002E09D000283CD0216840
:10130000994301432160FFF717FD064628E0216855
:10131000490701D5002891D061681F22120291432C
:101320002A691202114361602168994301432160D7
:10133000FFF746FFE16809060A0F00E08BE1BF49AD
:10134000895CC840BE490860BE480068FFF754FD8C
:10135000002873D120E0FFF7EFFC801B0228AFD8F4
:1013600020684007F7D560681F2109028843296972
:101370000902084360600FE02068400840002060D8
:10138000FFF7DAFC064604E0FFF7D6FC801B0228D4
:1013900096D820684007F7D42878C00660D5002F7B
:1013A0000CD0A86900284AD02068FF2101310843E9
:1013B0002060FFF7C1FC06462EE0C1E020688005F2
:1013C00002D5A8690028A6D0606807214903884390
:1013D000296A084360606068297F0002000A0906E4
:1013E00008436060286A410B0120C003491C884003
:1013F000E16809060A0F9149895CC8409049086074
:1014000090480068FFF7F8FC002817D128E0FFF7A4
:1014100093FC801B0228A2D820688005F7D560685D
:10142000072149038843296A084360606068297F6F
:101430000002000A09060843606011E0E2E021684A
:10144000FF20013081432160FFF776FC064604E06F
:10145000FFF772FC801B022872D820688005F7D441
:101460002878794E000724D568690028306910D0A3
:10147000012108433061FFF75FFC009005E0FFF7B2
:101480005BFC0099401A02285AD830698007F6D5CB
:101490000FE0400840003061FFF74EFC009005E08F
:1014A000FFF74AFC0099401A022849D830698007A2
:1014B000F6D42878400766D500200290A06BC000C3
:1014C00006D4A06B012109070843A0630120029004
:1014D0005E480168C90511D4016882151143016095
:1014E000FFF72AFC009005E0FFF726FC0099401A60
:1014F000642825D855480068C005F5D5FF20AA689E
:101500000130824203D131690143316111E001218F
:101510008902002A07D005231B029A4203D13269AF
:101520000A433261EFE732698243326130698843AE
:101530003061A868002810D0FFF7FEFB009008E09B
:101540005FE0FFF7F9FB01460098091A4048814225
:1015500057D830698005F4D50DE0FFF7EDFB00901A
:1015600006E0FFF7E9FB0099411A3948814248D863
:1015700030698005F5D40298002804D0A06B0121C1
:1015800009078843A063686A002866D00C2F3ED004
:10159000012636060228206805D0B0432060FFF7F8
:1015A000CBFB05462FE0B0432060FFF7C5FB0746A5
:1015B00004E0FFF7C1FBC01B022822D8206880018D
:1015C000F7D4E96AA86AE2680843296BFD231B0483
:1015D0009A4311430843E060206830432060FFF7DE
:1015E000ABFB054604E0FFF7A7FB401B022808D829
:1015F00020688001F7D530E0FFF79EFB401B0228F2
:1016000001D90320FEBD20688001F5D425E0012822
:10161000F8D0E06801210904AA6A014091421AD178
:101620000F218904EA6A0140914214D103218905FE
:101630000840296B88420DE000100240BC390008C8
:10164000A40000209C0000204010024000700040D8
:101650008813000001D00120FEBD0020FEBD000067
:10166000094910B5401E884201D9012010BD074C20
:1016700060610321081F01F03BFC0020A0610720EE
:101680002061002010BD0000FFFFFF0000E000E02F
:10169000F0B502462032137E012B1ED001251576AF
:1016A0000223537606687468B3687027BC430F68DA
:1016B000274377600068AC07A04205D0084CA042E1
:1016C00002D0084CA04204D180244968A3431943A6
:1016D0008160557600201076F0BD0220F0BD00003C
:1016E000000801400014014070B5050005D02C46EB
:1016F0002034607E002802D006E0012070BD00206A
:101700002076284600F00FF802206076291D286810
:1017100000F04AFF0120A077A076E076207760777E
:101720006076002070BD7047014620314A7E012A54
:1017300001D00120704702224A760268D368012155
:101740000B43D36000688A07904205D0074A904255
:1017500002D0074A904204D182685207520F062AEB
:1017600002D002680A43026000207047000801406E
:10177000001401400168CA6852085200CA6001683A
:101780000A6A064B1A4203D10A68520852000A60DC
:101790000121203041760020704700001111000027
:1017A000F8B5054604462035287E0026012817D0C6
:1017B0000120287602206876226890687727FF2328
:1017C000B8431B02984390600868502838D00EDC5C
:1017D00020284FD006DC00284CD010281ED149E02C
:1017E0000220F8BD302845D0402817D13AE06028C3
:1017F0002ED0702819D001221203801A0FD09042E7
:101800000CD1CB684A688968206800F006FF206820
:101810008168012292031143816000E001260120CA
:101820006876002028763046F8BDCB684A6889681B
:10183000206800F0F2FE2168886838438860EEE78F
:10184000CA684968206800F062FF5021206806E0FD
:10185000CA684968206800F06BFF6021206800F0CA
:10186000E7FEDCE7CA684968206800F050FF4021C5
:101870002068F4E7226801461046F0E7704770B52B
:101880000446006801690025C9438907002915DB62
:10189000C168C943890711D4E91E0161012020767E
:1018A000206880698007204602D0FFF7E7FF04E048
:1018B00000F078F8204600F0FEF8257620680169EF
:1018C000C943490717D4C168C943490713D4042140
:1018D000C943016102202076206880698005800F5D
:1018E000204602D0FFF7CAFF04E000F05BF8204674
:1018F00000F0E1F8257620680169C943090716D48C
:10190000C168C943090712D40821C94301610420F1
:1019100020762068C0698007204602D0FFF7AEFF1E
:1019200004E000F03FF8204600F0C5F82576206876
:101930000169C943C90617D4C168C943C90613D48C
:101940001021C9430161082020762068C069800504
:10195000800F204602D0FFF791FF04E000F022F84C
:10196000204600F0A8F8257620680169C943C90718
:1019700008D1C168C943C90704D1891E0161204645
:1019800000F0FCF820680169C943490609D4C16820
:10199000C943490605D44021C9430161204600F0EE
:1019A0001DF970BD7047F8B5064604462036307EF6
:1019B00000270D4601280ED001203076002A0CD0D9
:1019C000042A1BD0082A2FD00C2A3ED00127002041
:1019D00030763846F8BD0220F8BD206800F030FEB1
:1019E000206881690822114381612068826904218D
:1019F0008A43826120688169EA6812E0206800F009
:101A000037FE206882690121C9020A438261206889
:101A10008169012292029143816120688169EA68AB
:101A2000120211438161D2E7206800F03AFE20687B
:101A3000C16908221143C1612068C26904218A4337
:101A4000C2612068C169EA6812E0206800F044FEC3
:101A50002068C1690122D2021143C1612068C269B4
:101A6000012189028A43C2612068C169EA681202C1
:101A70001143C161ABE770B5050005D02C46203499
:101A8000607E002802D006E0012070BD0020207694
:101A9000284600F00FF802206076291D286800F023
:101AA00083FD0120A077A076E076207760776076CE
:101AB000002070BD7047704770B505462C46022067
:101AC0002034002908D004290BD008290ED0627FC9
:101AD000012A10D0012070BDA27E012AFAD1A07681
:101AE0000AE0E27E012AF5D1E07605E0227F012AB4
:101AF000F0D1207700E060770122286800F080FDB7
:101B00000122286892070121904205D0074A90429D
:101B100002D0074A904204D182685207520F062A27
:101B200002D002680A430260002070BD0008014034
:101B30000014014070B504460D460068002200F014
:101B40005FFD2068016A0C4A114203D1016849080F
:101B50004900016001202034002D06D0042D06D05C
:101B6000082D06D06077002070BDA076FBE7E076F8
:101B7000F9E72077F7E700001111000070B513486E
:101B8000FFF7F8FD124C07256561284601F0A4F91E
:101B90000720FFF765F906266661304601F09CF9DB
:101BA0000620FFF75DF90B4C606900280BD001217E
:101BB00009030948FFF7ACF8002101286079E071BA
:101BC00002D06671A17170BD6571FBE74C02002007
:101BD00000040140080000200004005070477047D6
:101BE00070477047F8B50446EFF31080012181F388
:101BF000108821680A68FF2321339A430A6080F322
:101C00001088EFF31080012181F3108821688A6821
:101C1000520852008A6080F31088206E01280BD190
:101C2000EFF31080012181F3108821680A681023E6
:101C30009A430A6080F31088236898682246410618
:101C4000002040320F25002929DAEFF31081012608
:101C500086F310889E684027BE439E6081F31088FB
:101C6000216F00290AD010488863206FFEF701FF1A
:101C7000002812D0206F816B88470EE0508360658A
:101C800021680D6221688A6908231A438A6120212C
:101C9000E16720662046FFF7A4FF0020F8BD5083CF
:101CA00060651D62F3E70000992800087047000096
:101CB000F8B502680446D06911689668A24B0546DB
:101CC0001D402023002D75D0F707A04DFF0FBC4607
:101CD0000D402F436DD02546C7078035002F06D015
:101CE000CF0504D5012717622A683A432A60820784
:101CF00008D5F20706D0276802223A622A6804272C
:101D00003A432A60420708D5F20706D02668042223
:101D100032622A68022632432A6002070AD50A463E
:101D20001A406646324305D02668082232622E6881
:101D300016432E60020508D54A0106D50122266801
:101D4000D20232622A681A432A602A68002A39D0ED
:101D5000800606D5880604D5616E002901D020468C
:101D60008847286821688968490602D428210842E2
:101D70002DD0204600F0A3FD21688868400622D5BA
:101D8000EFF31080012282F310888B684022934386
:101D90008B6080F31088206F002814D06C49816319
:101DA000206FFEF766FE00280CD0206F816B08E0E4
:101DB00000E012E0850610D58D060ED5616EA9E013
:101DC00020468847F8BD2046FFF770FFF8BD204643
:101DD000FFF76CFF00202860F8BD256E012D7CD137
:101DE000C5067AD5CD0678D5102616622268906889
:101DF000254640064035002846DA216F08684068CD
:101E00000004000CE8D02F8B8742E5D9688308686E
:101E10000068800633D4EFF31080012181F310882D
:101E200011683701B943116080F31088EFF3108017
:101E3000012181F3108821688A68520852008A6063
:101E400080F31088EFF31080012181F3108821685E
:101E50008A684027BA438A6080F31088E3670020CD
:101E60002066EFF31080012181F3108821680A6851
:101E7000B2430A6080F31088206FFEF7D8FD288BEC
:101E8000698B401A81B231E0288B698B401A81B28C
:101E9000688B0028A0D000299ED0EFF31080012588
:101EA00085F310881568FF272137BD43156080F33F
:101EB0001088EFF31080012282F310882268956861
:101EC0006D086D00956080F31088E3670020206640
:101ED0006066EFF31080012200E00BE082F31088CF
:101EE00022681368B343136080F310882046FFF71D
:101EF00076FEF8BDC50208D5750206D5012000059D
:101F000010622046FFF76CFEF8BD050606D50D06EB
:101F100004D5A16E002900D052E7F8BD4006FCD5DB
:101F20004806FAD52046EFF31081012484F3108887
:101F300014684025AC43146081F310888367002146
:101F4000816600F002F9F8BD0F08000020010004CE
:101F50008528000810B5040003D0A06F002802D027
:101F600007E0012010BD002174200155204600F03B
:101F700026F82420A067206801684908490001600C
:101F8000204600F073FD0128ECD0606A002802D0E2
:101F9000204600F0E0FB206841680922D20291430C
:101FA0004160206881682A2291438160206801682D
:101FB000012211430160204600F032FC10BD704741
:101FC00070B5C36F202B2ED100290BD0002A09D069
:101FD000012483682403A34206D10369002B03D1A3
:101FE000CB0701D0012070BD034660331C7D012C5E
:101FF00019D001241C75002303660C4B04689C4215
:102000000ED063681B020BD5EFF31083012585F317
:10201000108825680126B6063543256083F31088AD
:1020200000F024FE70BD022070BD0000004800409A
:102030000D4B10B50D490122984210D10B461C786A
:102040000B48212C06D01A780B6AC254086A401C2F
:10205000086210BD0C6A212303558A7010BD054B20
:102060009842FBD1CA7010BDA800002008000020D3
:102070009C0200202C010020FFB50446806F83B035
:1020800017460D4620285ED1002D0AD0002F08D01B
:10209000A168C001814207D12069002804D1E80766
:1020A00002D0012007B0F0BD204660300090007DD6
:1020B000012848D000980121017500208021085195
:1020C0002120A067FEF738FE264640360190378271
:1020D00077820120A1680003814202D12069002893
:1020E00005D02F46002500990020087511E0002733
:1020F000F9E700228021204600F012FE002815D1C9
:10210000002F15D02168387888627F1C708A401EA5
:102110007082708A019B002806980090E9D1002205
:102120004021204600F0FCFD002808D00320B9E73C
:1021300028882168C005C00D8862AD1CE6E7202014
:10214000A0670020AEE70220ACE77047FEE710B5BD
:10215000012000F005F80220FEF7B2FC10BD0000DF
:1021600070B504460520002208210007FEF7DDFDBA
:10217000200900F0DFF80E4D012204212846FEF769
:10218000D4FD01F073F8002204212846FEF7CDFDAE
:10219000204600F0CFF8012204212846FEF7C5FDB5
:1021A00001F064F8002204212846FEF7BEFD70BD50
:1021B0000004005070B504460520012208210007E4
:1021C000FEF7B3FD200900F0B5F80E4D0122042101
:1021D0002846FEF7AAFD01F049F80022042128460E
:1021E000FEF7A3FD204600F0A5F8012204212846B1
:1021F000FEF79BFD01F03AF8002204212846FEF785
:1022000094FD70BD0004005010B51420FEF758FC7A
:102210000520002208210007FEF787FD032000F0BB
:1022200089F82C4C012204212046FEF77EFD01F0A6
:102230001DF8002204212046FEF777FD0120FEF75D
:102240003FFC032000F076F8012204212046FEF72F
:102250006CFD01F00BF8002204212046FEF765FD1D
:102260000120FEF72DFC032000F064F80122042178
:102270002046FEF75AFD00F0F9FF00220421204617
:10228000FEF753FD0120FEF71BFC2820FFF768FF37
:102290000120FEF715FC2820FFF762FF0120FEF762
:1022A0000FFC0C20FFF75CFF0120FEF709FC01206A
:1022B000FFF756FF0220FEF703FC0620FFF750FF52
:1022C0000120FEF7FDFB0220FFF74AFF0220FEF788
:1022D000F7FB10BD0004005010B5FFF76BFF00F0D6
:1022E000C5FF10BD10B5802200290ED001290ED0E7
:1022F00002290ED0032907D154301043C0B2FFF792
:102300002FFF0120FEF7DCFB10BD1043F7E7403044
:10231000F3E71430F1E770B50546002405E0FFF758
:1023200049FF00F0A3FF641CE4B2285D0028F6D149
:1023300070BD000070B50446124D000701D50122A2
:1023400000E0002280212846FEF7EFFC600701D55F
:10235000012200E0002240212846FEF7E6FCA0070B
:1023600001D5012200E0002220212846FEF7DDFCF5
:10237000E00701D0012200E0002210212846FEF7EC
:10238000D4FC70BD0000005010B50248FFF790FC6F
:1023900010BD00002C01002010B51148816B0122F6
:1023A00092041143816310480E4901604B21490298
:1023B000416000218160C16001610C228161426144
:1023C000C161FFF7C7FD002801D072B6FEE71D20EE
:1023D000FEF746FD002211461D20FEF74DFD10BD03
:1023E00000100240004800402C010020FEE770472A
:1023F000704710B5FEF7E4FC10BD000000B599B0C1
:1024000034216846FDF7C3FE14210DA8FDF7BFFE79
:102410001C2112A8FDF7BBFE1E4801680322D20250
:102420009143C214891801600B200090012105918D
:1024300050010391019010210A9004910320022180
:1024400080040B9048050C9009916846FEF7F4FE55
:10245000002801D072B6FEE70F200D9003200E90E9
:1024600000200F901090119001210DA8FEF7BAFDE9
:10247000002801D072B6FEE70420129000021690E8
:1024800012A8FEF7FDFC002801D072B6FEE719B0D5
:1024900000BD0000007000407047000010B58AB019
:1024A00000240494059406940794089423480994FE
:1024B0000094019402940394816B0122114381637F
:1024C00081041F480160FF21403184604160046144
:1024D00018214461C160FFF707F9002801D072B6E6
:1024E000FEE701200003049004A91548FFF758F9FE
:1024F000002801D072B6FEE71148FFF7BCFA0028A9
:1025000001D072B6FEE7089408A90D480994FFF7B8
:10251000BFF8002801D072B6FEE7602000900C20C2
:10252000019002940022694603940548FFF73BFAA4
:10253000002801D072B6FEE70AB010BD00100240BC
:102540000C02002010B50248FFF799F910BD0000F9
:102550004C02002010B50F48816B1022114381639B
:102560000E480D4901600E494160002181600D4A0D
:102570000161C2604161FFF7B7F8002801D072B66F
:10258000FEE71120FEF76CFC002211461120FEF739
:1025900073FC10BD00100240001000404C020020EF
:1025A000FF7C00005702000070B5026801239B0702
:1025B000114C124D984203D0A04201D0A84203D141
:1025C0007026B2434E683243984203D0A04201D0F5
:1025D000A84204D103231B029A43CB681A438023E9
:1025E0009A430B691A4302608A68C2620968816271
:1025F0000121416170BD000000080140001401404C
:1026000010B5CB06DB0E0121046A99408C430462AD
:10261000016A9A401143016210BD30B58468FF25FC
:102620002D021B021343AC430B432343836030BD95
:10263000826870239A430A4307210A4382607047E5
:1026400030B5026A520852000262026A4568836924
:102650007024A3439C080B68A40023430224A243D4
:102660008C6845601443836149684163046230BDEE
:1026700030B5026A10239A430262036A4568826990
:1026800073242402A2430C6824021443202293439F
:102690008A68456012011A43846149688163026255
:1026A00030BD30B5026AFF2301339A430262026AE9
:1026B0004568C3697024A3439C080B68A4002343A6
:1026C00001246402A2438C68456024021443C36160
:1026D0004968C163046230BD30B5026A01231B033F
:1026E0009A430262036A4568C26973242402A243C2
:1026F0000C68240214430122520393438A68456004
:1027000012031A43C46149680164026230BD30B5E6
:10271000036A046A6408640004628469F025AC43B7
:10272000120122430A24A3430B438261036230BD9A
:1027300030B5036A1024A34303628469036A0F253A
:102740002D031203AC432243A024A34309011943E0
:102750008261016230BD10B5818CC90707D0016864
:102760004A6801235B049A43836A1A434A60818C56
:10277000890707D501684A6801231B049A43C36A85
:102780001A434A60818C490707D501684A680123CA
:102790009B049A43036B1A434A60818C090707D54F
:1027A00001684A680123DB039A43436B1A434A607A
:1027B000818CC90607D50268916801231B039943E0
:1027C000836B19439160818C890607D501688A68FB
:1027D00001235B039A43C36B1A438A60818C4906C9
:1027E00012D503685A6801210905046C8A43224303
:1027F0005A60026C8A4207D10268516803235B0564
:102800009943436C19435160818C090607D50168CF
:102810004A680123DB04806C9A4302434A6010BD7E
:10282000F8B50446002680300660FEF785FA0546B6
:1028300020680068124F000709D501212B460022AD
:1028400049052046009700F06BFA00280DD120685A
:10285000006840070BD501212B4600228905204640
:10286000009700F05DFA002801D00320F8BD202079
:10287000A067E0672666603426750020F8BD00007A
:10288000FFFFFF0110B5806A0022014640314A83F4
:102890004A82FFF70BFA10BD10B5806A00215A2258
:1028A000115203680F221A620268936908242343B5
:1028B00093612022C2670166FFF793F910BD10B53E
:1028C000EFF31081012282F3108802681368FF245D
:1028D0002134A343136081F31088EFF310810122A8
:1028E00082F31088026893685B085B00936081F351
:1028F0001088016E01290BD1EFF31081012282F3C0
:102900001088026813681024A343136081F31088B1
:102910002021C16700210166416610BD70B50146E6
:1029200040318B8BC46F0268222C04D0906908213F
:102930000843906170BD526A446D1A402280426D16
:10294000921C42654A8B521E4A834A8B002AF1D15F
:10295000EFF31082012383F3108803681C68FF25BE
:102960002135AC431C6082F31088EFF31082012301
:1029700083F3108803689C68640864009C6082F399
:1029800010882022C26700224266036E012B02D00B
:10299000FFF74EFB70BD0266EFF31082012383F355
:1029A00010880468256810239D43256082F31088F1
:1029B0000268D469E443E40600D41362098BFFF78C
:1029C0000EF970BD70B5014640318B8BC46F026843
:1029D000222C04D0906908210843906170BD526A8E
:1029E0001A40436D1A70426D521C42654A8B521E4A
:1029F0004A834A8B002AF1D1EFF31082012383F33B
:102A0000108803681C68FF252135AC431C6082F3E5
:102A10001088EFF31082012383F3108803689C6809
:102A2000640864009C6082F310882022C267002240
:102A30004266036E012B02D0FFF7FAFA70BD026600
:102A4000EFF31082012383F31088046825681023B4
:102A50009D43256082F310880268D469E443E4064C
:102A600000D41362098BFFF7BAF870BDF8B50446BD
:102A7000016880682369E669184363690025334368
:102A80001843724A0B68724E334003430B6021684F
:102A9000486803231B039843E36818434860216890
:102AA000A069914201D0236A18438B680B26360235
:102AB000B34303438B606749236867488B420CD15B
:102AC000C0688007800F06D0012839D0022835D091
:102AD000032821D11EE001271FE060498B420AD163
:102AE000C0680C21084027D0042829D0082825D008
:102AF0000C2811D10EE093420ED1C1680320800250
:102B0000014019D001208002091A19D0091A15D0E4
:102B1000814201D1082700E010274F495048403931
:102B20008600934232D1002F0CD0022F0DD0042FFB
:102B300010D0082F7FD126E00027EEE70227ECE730
:102B40000427EAE7FEF71CFB06E00968C90605D47E
:102B5000304603E0FEF734FB002872D06268510073
:102B60005118814267D81103814264D3010E0602D5
:102B70005008002330185941FDF7D2FA0321090209
:102B8000411A384A55E00120C003E7E70122E36912
:102B9000D20393422BD13B0000F090F90906090CB7
:102BA0004D114D4D4D274D00FEF7EAFA09E0FEF7B5
:102BB000F7FA06E00968C90605D4304603E0FEF7D7
:102BC000FFFA00283DD0616840004A088018FDF7F0
:102BD00091FA80B20146244A103991422BD8511CF7
:102BE00001400007400F084329E01046EBE73B0097
:102BF00000F064F90906090C21122121212321008A
:102C0000FEF7BEFA0AE0FEF7CBFA07E00968C9064C
:102C100006D4304604E00EE0FEF7D2FA002810D0C9
:102C200061684A081018FDF765FA80B201460E4A3D
:102C30001039914203D9012503E01046F0E72168DD
:102C4000C86000206066A0662846F8BD00480040C5
:102C5000F369FFEF0038014040100240004400409B
:102C600000093D00FFFC0F00EFFF000070B541655B
:102C7000014640310A834A83002242660123846868
:102C80001B03FF259C4204D10469002C13D1214C65
:102C90000AE07F26002C09D001252D07AC420CD17B
:102CA0000469002C05D03F248C8307E00469002CC4
:102CB00001D08E8302E08D8300E08A8380210A5058
:102CC0002221C167EFF31081012484F31088046886
:102CD000A56801263543A56081F310888168994273
:102CE00002D10169002912D00B49416674210A54AE
:102CF000EFF31081012282F3108800680268FF233D
:102D000021331A43026081F31088002070BD03490B
:102D1000EBE70000FF010000C52900081D2900089D
:102D2000FFB581B005461746044660350A9E55E05A
:102D3000701C53D0FEF700F80499401AB04230D806
:102D4000002E2ED020680168490747D5C069C043CE
:102D5000000543D401202168C0020862EFF310800F
:102D6000012181F3108821680B68FF22A13293436F
:102D70000B6080F31088EFF31080012181F310883D
:102D800021688A68520852008A6080F310882020E7
:102D9000A067E0678034206000202875032005B01C
:102DA000F0BDEFF31080012181F3108821680B68DA
:102DB000FF22A13293430B6080F31088EFF3108061
:102DC000012181F3108821688A68520852008A60C4
:102DD00080F310882020A067E067DDE72068C169E4
:102DE0000298884304D00020B842A1D00020D6E742
:102DF0000120F9E710B5012203490448FFF7E0F884
:102E00000248FEF755FF10BD08000020A800002072
:102E100010B51148416B01229203114341631048E0
:102E20000E4901604B21C901416000218160C160F0
:102E300001610C2281614261C161FFF78BF80028BA
:102E400001D072B6FEE7002211461B20FEF714F8EF
:102E50001B20FEF705F810BD0010024000380140AD
:102E6000A80000200FB410B504A9074B02AA0398CC
:102E700000F070F8044602A9002000F013F9204683
:102E800010BC08BC04B01847A5300008F8B5040C05
:102E90008BB2264682B25E430D0C1046370C584367
:102EA000360480190021794116466E43370C3604EA
:102EB0008019794126466E438919F8BD30B47446AD
:102EC000641E2578641CAB4200D21D46635D5B0026
:102ED000E31830BC18470000002805DBC106C90E06
:102EE00001208840014908607047000080E200E04E
:102EF0008307FF22DB0E9A408907090E99400028BC
:102F000008DB830809489B001B1818689043084396
:102F1000186070470007000F0838830804489B00BA
:102F20001B18D86990430843D861704700E400E05B
:102F300000ED00E002E008C8121F08C1002AFAD123
:102F400070477047002001E001C1121F002AFBD129
:102F500070470000FFB58DB00446002506E0252827
:102F60000AD0109A0F999047641C6D1C2078002895
:102F7000F5D1284611B0F0BD00270121484A00973D
:102F800000E00743641C23780846203B9840104229
:102F9000F7D120782E2817D1042007436078641CCD
:102FA0002A280CD10E98641C02C800910E900BE0E8
:102FB00000990A22514330394018641C009020784F
:102FC000014630390929F3D920780028D1D0642866
:102FD00008D0692806D075281ED0109A0F999047FE
:102FE0006D1C5BE00A200E99019001C90E9100282A
:102FF00002DA40422D2102E0390504D52B216A4630
:103000001172012103E0F90704D02021F7E70BAE8C
:103010000B910DE00021FAE70A200E99019001C9F9
:103020000E91F7E70199FDF765F83031761E3170A2
:103030000028F7D103A8801B20300190780701D524
:10304000009801E0012000900199884201DD401ABA
:1030500000E000200027009006E002A8109AC05D62
:103060000F9990476D1C7F1C0B988742F5DB04E09D
:10307000109A30200F9990476D1C0099481E0090BF
:103080000029F5DC05E03078109A761C0F999047FE
:103090006D1C0199481E01900029F4DC641C65E751
:1030A000092801000A68531C0B601070704700006B
:1030B00010B5FFF74CF800210320FFF713F90DA01E
:1030C000FFF729F901210820FFF70CF90BA0FFF702
:1030D00022F90C48FDF7F4FCFFF739F800210D2028
:1030E000FFF700F908A0FFF716F9084901208870DA
:1030F00010BD00004155544F000000004D4F4445A5
:1031000000000000DC050000417C53007800002036
:1031100010B5044600210548FEF7CEFC2046FDF719
:10312000CFFC00210148FEF705FD10BD0C02002078
:10313000F0B50026204F2A20354632463146FB1C8A
:1031400078545854491C0329FADB1C4C0021605464
:10315000491C0B29FBDB194833380178242929D174
:10316000012104E0475C1448491C8755761C13482C
:103170003338475C2E2FF5D100E0491C465C202EE9
:10318000FBD1491C03E0465C5E55491C6D1C465C46
:103190002E2EF8D100E0491C435C202BFBD1491CAA
:1031A00003E0435CA354491C521C435C212B01D017
:1031B0000B2AF6DBF0BD000010000020CF0200203B
:1031C00030B524230370612343700223002404E0FC
:1031D000C5545B1C641C032C02DA0D5D2A2DF7D14B
:1031E0002021C15400215B1C04E0C454491C5B1C19
:1031F000032902DA545C2A2CF7D12121C15430BDB5
:103200007CB50446242020706D2060700020009062
:10321000144D019014A16846AA69FFF723FE12A17C
:1032200001A8EA69FFF71EFE022100206A4604E0B9
:103230006354401C491C032802DA135C002BF7D1AD
:1032400020206054002001AA491C04E06354401C63
:10325000491C032802DA135C002BF7D121206054AB
:103260007CBD000008000020256400000020401CF8
:1032700080B25028FBD370473EB51B4C07206071CD
:103280000025A571012202211848FDF74EFD009589
:103290000195242168460295017062214170E1790F
:1032A0002120052901D0612200E06D2269468A7043
:1032B000C8700F48806F202811D10E4B0A220E488B
:1032C000FEF7DAFE9620FFF723FFE079052807D006
:1032D00065716561FF2065702D30FDF7F1FB3EBD26
:1032E00005206071F5E70000080000200004005090
:1032F000A8000020FFFF00002C01002072B6FEE7AE
:1033000010B5FEF724FF00210846FEF7EBFF07A0EB
:10331000FFF701F801210020FEF7E4FF07A0FEF708
:10332000FAFF0B490120887010BD0000436F6E6EDC
:103330006563742055534220616E64007475726E2B
:10334000206F6E204F72626974726F6E0000000011
:103350007800002010B5054C022020702046143063
:10336000806880470120A07010BD00007800002018
:10337000054C254630356079A179C0004019890097
:1033800040588047F7E700000800002010B5FDF71F
:103390001FFDFFF733F8FDF73FF8FFF739FDFEF7A4
:1033A000FBFFFCF7DFFFFFF779F8FFF7D3F8002109
:1033B0000B48FDF7FDF8FEF727FFFEF7C8FEFFF705
:1033C000C9FF07480749DC30016003214160064915
:1033D0008160C160FDF7B6FCFFF7CAFF002010BD99
:1033E000B001002000300040B70B0000FEB5304CAB
:1033F000052060710025A571207900F01BFA2D4889
:10340000FDF7D6FC2C48FDF7C5FA64212A48FDF7E4
:103410005CFA2948FDF770F9E06164212648FDF760
:1034200054FA2548FDF768F9A0612348FDF7E0FA52
:1034300021461131C81E00F0B7F9204E01220221A9
:103440003046FDF772FC0095019568460295FFF73E
:10345000D7FE1B48806F202805D11A4B0A226946E7
:103460001948FEF709FE002202213046FDF75DFCF7
:103470000B2216491448FEF7A3FDE0780028F7D088
:10348000124800F073F80E48FEF7ACFBE570FDF74C
:1034900053FC616A401AFF21F531884207D90121A6
:1034A00049030B48FDF739FCFDF746FC6062FEBDA1
:1034B000080000208C020020B00100200004005011
:1034C000A8000020FFFF00002C010020C402002003
:1034D0000008005010B5FEF73AFE00210220FEF76A
:1034E00001FF14A0FEF717FF01210820FEF7FAFEE6
:1034F00012A0FEF710FF1348FDF7E2FAFEF727FED1
:1035000000210846FEF7EEFE0FA0FEF704FF0121A2
:103510000020FEF7E7FE0EA0FEF7FDFE00210D20C5
:10352000FEF7E0FE0CA0FEF7F6FE0C4901208870C5
:1035300010BD00004D414E55414C00004D4F4445DB
:1035400000000000DC050000417A696D203D20008C
:10355000456C6576203D20004D7C530078000020AE
:1035600001490020887070477800002030B501784C
:10357000242924D1134B00212A24DA1C5C545454EE
:10358000491C0329FADB0121002402E01D55491CD6
:10359000641C455C202DF9D10023491C02E0D45461
:1035A000491C5B1C445C202CF9D1491C415C05483A
:1035B0000E38442904D0532901D10021417030BD77
:1035C0000121FBE716000020F8B5144C00256571B9
:1035D000A571207900F02EF91148FDF7E9FB114E95
:1035E00030680168202739430160A078002814D092
:1035F000FFF79EFD0C4900200D54401C2828FBDBE2
:103600002562A57030680168B94301600122910309
:103610000648FDF78AFB0120A071F8BD08000020D4
:103620008C020020A80000209C020020000800500E
:1036300070B5104C042060710025A5712A46022146
:103640000D48FDF772FB0B220C490D48FEF7B8FC44
:10365000E07800280DD00948FFF788FF0948FEF7F9
:10366000C1FA012251030848FDF75FFBE570012014
:10367000A07170BD0800002000040050C4020020AA
:103680002C010020A8000020000800503EB50E4C80
:10369000032060710025A571012202210B48FDF76E
:1036A00044FB22460B3200950195D11E68460295D7
:1036B000FFF786FD064B0A2269460648FEF7DCFC4A
:1036C0000120A0713EBD0000080000200004005051
:1036D000FFFF00002C0100203EB5154C0620607154
:1036E0000025A571012202211248FDF71EFB00955D
:1036F000019524216846029501707A2141702121AB
:1037000081700D48806F20280ED10C4B0A2269462B
:103710000B48FEF7B1FCFF209130FFF7F9FC656123
:10372000E079052801D065713EBD052060713EBD80
:103730000800002000040050A8000020FFFF000047
:103740002C01002070B5094C012565710020A07185
:1037500021460B31064AC81E00F086F80022A90354
:103760000448FDF7E2FAA57170BD000008000020D2
:10377000CF0200200008005010B5094C02206071F3
:103780000020A07121461131C81E00F0C9F80121A6
:10379000002249030348FDF7C8FA0120A07110BDBB
:1037A000080000200008005070B506461E480D466F
:1037B0000078012836D000210720FEF793FD1BA0DA
:1037C000FEF7A9FD00210720FEF78CFD002402E092
:1037D000FEF782FD641C305D2A2801D0032CF7DB44
:1037E00001210720FEF77EFD10A0FEF794FD0121C8
:1037F0000720FEF777FD002402E0FEF76DFD641C54
:10380000285D2A2801D0032CF7DB00210F20FEF7CA
:1038100069FD07480078002801D0442000E05320CB
:10382000FEF75AFD70BD0000780000202020200027
:10383000090000200A498A78002A0FD1094A012884
:1038400002D0022802D003E0022300E00523137017
:103850000870034980001431085800477047000081
:10386000780000200D000020F8B50D460646002126
:1038700017460846FEF736FD26A0FEF74CFD002150
:103880000846FEF72FFD00240CE05F2804D028280E
:103890000DD05F2802D002E0062C08DC2020FEF7C5
:1038A0001BFD641C385D2A2801D00B2CEDDB0121A7
:1038B0000420FEF717FD19A0FEF72DFD0627384658
:1038C0000121FEF70FFD0224305D2A2806D0FEF705
:1038D00003FD7F1EF8B20121FEF704FD641EF3D53F
:1038E00001210D20FEF7FEFC0CA0FEF714FD0121C6
:1038F0000F20FEF7F7FC0F260224285D2A2806D0A9
:10390000FEF7EAFC761EF0B20121FEF7EBFC641E26
:10391000F3D5F8BD202020202020202020202000CA
:1039200070B50D46064601210020FEF7DBFC21A004
:10393000FEF7F1FC01210020FEF7D4FC002402E098
:10394000FEF7CAFC641C305D2A2801D0032CF7DB8B
:1039500001210320FEF7C6FC7E20FEF7BDFC0121FD
:103960000920FEF7BFFC13A0FEF7D5FC01210920BA
:10397000FEF7B8FC002402E0FEF7AEFC641C285DF4
:103980002A2801D0032CF7DB01210C20FEF7AAFC2A
:103990007E20FEF7A1FC00210F20FEF7A3FC0648C5
:1039A0000078002801D0442000E05320FEF794FC6A
:1039B00070BD000020202000090000200000000051
:1039C00000000000010203040607080903040608BA
:1039D0000C10182030000000000102030400000059
:1039E000003A000800000020A8000000342F000862
:1039F000A83A0008A800002038060000442F00085C
:103A000000000000000000000000000002050005AA
:103A100000000000000000000000000000000000A6
:103A20000000000000000000000000000000000096
:103A30000000000000000000C935000845370008FC
:103A4000FD3200088D36000879370008C9350008B6
:103A5000FD32000831360008313600087937000899
:103A6000ED33000800000000D93600080000000017
:103A70007932000800000000000000000000000093
:103A800000000000000000000000000001330008FA
:103A9000B1300008D5340008010000000400000027
:083AA0000000000000002000FE
:04000005080000C12E
:00000001FF
